:020000040800F2
:100000003807002089010008931700088D120008A6
:1000100091170008A1020008CD1900080000000097
:10002000000000000000000000000000971700081A
:10003000A9020008000000009517000869190008CF
:10004000A3010008A3010008A3010008A301000800
:10005000A3010008A3010008A3010008A3010008F0
:10006000A3010008A3010008A3010008A3010008E0
:10007000A3010008A3010008A3010008A3010008D0
:10008000A3010008A3010008A3010008A3010008C0
:10009000A3010008A3010008A3010008A3010008B0
:1000A000A3010008A3010008A3010008A3010008A0
:1000B000A3010008A3010008A3010008A301000890
:1000C000A3010008A3010008A3010008A301000880
:1000D000A3010008A3010008A3010008A301000870
:1000E000A3010008A3010008A301000800F002F822
:1000F00000F03AF80AA090E8000C82448344AAF188
:100100000107DA4501D100F02FF8AFF2090EBAE885
:100110000F0013F0010F18BFFB1A43F0010318473B
:1001200084210000A4210000103A24BF78C878C1BF
:10013000FAD8520724BF30C830C144BF04680C60ED
:10014000704700000023002400250026103A28BF35
:1001500078C1FBD8520728BF30C148BF0B60704739
:100160001FB51FBD10B510BD00F058F81146FFF7C0
:10017000F7FF01F011FD00F076F803B4FFF7F2FF8E
:1001800003BC00F07DF8000009488047094800479B
:10019000FEE7FEE7FEE7FEE7FEE7FEE7FEE7FEE737
:1001A000FEE7FEE704480549054A064B7047000094
:1001B000CB190008ED0000083801002038070020A6
:1001C00038030020380300204FF0000200B513462A
:1001D00094469646203922BFA0E80C50A0E80C5067
:1001E000B1F12001BFF4F7AF090728BFA0E80C5018
:1001F00048BF0CC05DF804EB890028BF40F8042B11
:1002000008BF704748BF20F8022B11F0804F18BF7D
:1002100000F8012B7047704770477047754600F033
:100220002BF8AE4605006946534620F00700854688
:1002300018B020B5FFF7B6FFBDE820404FF000062C
:100240004FF000074FF000084FF0000B21F00701BE
:10025000AC46ACE8C009ACE8C009ACE8C009ACE801
:10026000C0098D46704710B50446AFF300802046A4
:10027000BDE81040FFF781BF00487047D400002060
:1002800001491820ABBEFEE726000200704700F0CF
:100290000F01000900EB800001EB4000C0B2704785
:1002A000FEE701618282704770470A21B0FBF1F2DC
:1002B00001FB1202B0FBF1F042EA0010C0B270473D
:1002C000224810B5417800F11404B9B11430012965
:1002D000807821D002292CD0032936D10022022196
:1002E00001F05AFA60780022012101F055FA2078D5
:1002F00000220021BDE8104001F04EBA60780022D3
:10030000012101F049FA00222078114601F044FA57
:100310000322A0780221EDE70022022101F03CFA3D
:1003200000222078114601F037FA0222607801217C
:10033000E0E70022022101F02FFA6078002201217B
:1003400001F02AFA20780122D3E710BD0000002036
:100350002DE9F05F8A46674901F0DEFD01F090FD6E
:1003600080B24FF47A71B0FBF1F101F0FF09642122
:10037000B0FBF1F20A21B2FBF1F301FB1328B0FB51
:10038000F1F2B2FBF1F301FB1325B0FBF1F201FB3B
:10039000120700F0CBF9584C064600224FF40051EA
:1003A000204600F0BEF901221103204600F0B9F901
:1003B000DFF848B168E0524C14F8090001F0A2FAE5
:1003C00000228021584600F0ACF9012000F09AF894
:1003D00001228021584600F0A4F914F8080001F029
:1003E00091FA00224FF48071584600F09AF90120EA
:1003F00000F088F801221102584600F092F9605D81
:1004000001F080FA00224FF40071584600F089F99B
:10041000012000F077F801225102584600F081F9DE
:10042000E05D01F06FFA4FF48064002221465846E7
:1004300000F077F9012000F065F8012221465846C6
:1004400000F06FF99C2001F05DFA64000022214663
:10045000584600F066F9012000F054F801222146C8
:10046000584600F05EF9C62001F04CFA6400002204
:100470002146584600F055F9012000F043F80122CA
:100480002146584600F04DF900F050F9811B5145C6
:1004900091D3002001F036FA012280215D465846B2
:1004A00000F03FF901221102284600F03AF901223A
:1004B0005102284600F035F901229102284600F049
:1004C00030F90122D102284600F02BF90122140351
:1004D0002146284600F025F9074D002261002846F4
:1004E00000F01FF921462846BDE8F05F002200F029
:1004F00018B900000000C842000C0140000801408B
:100500001B00002070B5044600F010F90546601C81
:1005100002D004480078044400F008F9401BA042CF
:10052000FAD370BD280000202DE9F84FDFF8B8910C
:100530000024A9F1040B23460F2709F1040AABF1AB
:10054000040EC9E00125A5402A40AA427DD1674E8C
:10055000D1F804C0ACEB0608B44532D014DCBCF1D1
:10056000030F3AD009DCBCF1000F2AD0BCF1010F17
:100570001CD0BCF1020F31D11DE0BCF1110F17D01E
:10058000BCF1120F2AD119E0B8F5881F19D006DC8A
:10059000B8F5803F15D0B8F5801F1FD111E0B8F530
:1005A000001F0ED0B8F5041F18D10AE0CB6815E083
:1005B000CB681B1D12E0CB6808330FE0CB680C330F
:1005C0000CE08B682BB1012B4FF0080303D0456181
:1005D00004E0042302E0056100E00023FF2A01D8C3
:1005E000064601E000F104064FEA840501D9A5F1B1
:1005F0002005D6F8008007FA05FC28EA0C0803FA63
:1006000005F548EA0508C6F800804D68ED0062D59A
:10061000374DAE6946F00106AE61AD6924F00306C0
:1006200005F001050095334D06EB050CDCF808508C
:10063000A607360F07FA06F825EA0805DFF8B8809E
:10064000404503D14FF0000817E044E0DFF8AC80EC
:10065000404502D14FF001080FE0DFF8A48040458B
:1006600002D14FF0020808E0DFF89880404502D13F
:100670004FF0030801E04FF0040808FA06F848EAD2
:100680000508CCF808804D68D9F80060ED024D46A9
:1006900001D5164300E096432E604D68DAF80060FD
:1006A000AD02554601D5164300E096432E604D68D5
:1006B000DBF80060AD035D4601D5164300E09643CC
:1006C0002E604D68DEF80060ED03754601D51643D7
:1006D00000E096432E60641C0D682A46E5407FF4D6
:1006E00031AFBDE8F88F0000080401400000111090
:1006F000001002400000014000080140000C0140D1
:1007000000100140001401408068084000D0012022
:100710007047C26821EA02030A4043EA02410161CC
:1007200070470AB1016170470904FBE7014880681E
:10073000704700002800002070B5040025D094F810
:100740003D00002520B984F83C50204600F076FAA0
:10075000242084F83D002068016821F00101016037
:100760002068016841F4004101602068016821F4BB
:100770000041016000F0B0FB4D4A6168914201D830
:100780004C4900E04C49884201D2012070BD4B49E0
:100790002368B0FBF1F15E6826F03F060E435E6011
:1007A0006368934206D94FF4967359434FF47A73B2
:1007B000B1FBF3F12368491C1E6A26F03F06314362
:1007C00019626168914210D84900401EB0FBF1F2F5
:1007D000521CC2F30B02042A01D2042022E0B0FB17
:1007E000F1F0401CC0F30B001CE0A268F2B301EB77
:1007F000C10303EB0116431EB3FBF6F35B1C43F48A
:1008000080431B0549D092B301EBC10202EB0111F9
:10081000401EB0FBF1F0401CC0F30B0040F48040E0
:1008200040F400402168CA694CF6FF739A431043B4
:10083000C861D4E9071001432068026822F0C002B1
:1008400011430160D4E9030101432068826848F242
:10085000FF339A4311438160D4E9050108432168BD
:10086000CA6822F0FF021043C86001E00EE016E003
:100870002068016841F0010101602564202084F8AE
:100880003D00256384F83E50002070BD01EB410619
:10089000431EB3FBF6F35B1CB3E70120C2E701EB99
:1008A0004101401EB0FBF1F0401CC0F30B00B7E764
:1008B000A086010080841E0000093D0040420F0018
:1008C0002DE9F84F0025DDF82890984617468A460E
:1008D00004460095FFF72AFF064694F83D002028BD
:1008E0007AD11923012286492046009600F0D6FDD0
:1008F0000028F5D194F83C0001286DD0012084F83F
:100900003C0020680168C90703D1016841F001017A
:1009100001602068016821F400610160222084F8F0
:100920003D00102084F83E0025646762A4F82A8008
:10093000608D20857348E06233464A465146204622
:1009400000F0BCFC00287CD1208DDFF8BC81202782
:1009500068B1012814D00228206801681ED041F433
:10096000806101602068416980690090BBE0206877
:10097000416981690091016841F400710160B2E050
:100980002068016821F48061016072B620684169C5
:1009900081690091016841F400710AE041F400614D
:1009A000016072B62068416981690091016821F493
:1009B0008061016062B696E0032865D801280CD0FA
:1009C00002284B464FF000024146204600960BD0CD
:1009D00000F064FDA8BB0CE090E03246494620469A
:1009E00000F002FE68BB71E000F058FD48BB72B633
:1009F00033E02068016821F48061016072B62068EC
:100A00000069616A0870606A401C6062208D401E47
:100A10002085608D401E60853C4846F2A811006824
:100A2000B0FBF1F0C0EBC00000EB80000090401E76
:100A3000009007D020684069C04340070DD500985A
:100A4000F5E727E044F8305F6773A573206940F04D
:100A50002000206162B625731CE02068016841F423
:100A60000071016020680069616A0870606A401C5A
:100A70006062218D491E2185618D491E618562B6A6
:100A800021680969017025E032464946204600F098
:100A9000ABFD10B10120BDE8F88F20680069616AE4
:100AA0000870606A401C6062208D401E81B2218502
:100AB000608D401E608520684269D243520712D47F
:100AC000032903D1016821F4806101602068006975
:100AD000616A0870606A401C6062208D401E20853B
:100AE000608D401E6085208D00287FF465AF84F8FE
:100AF0003D7084F83E5084F83C50CCE70220CAE7B1
:100B0000020010000000FFFF04000100340000207C
:100B10002DE9F84F1F4690468A460446DDF8289096
:100B2000FFF704FE054694F83D0020287FD11923E5
:100B3000012240492046009500F0B0FC002876D103
:100B400094F83C00012872D0012084F83C00206811
:100B50000168C90703D1016841F001010160206803
:100B6000016821F400610160212084F83D0010201B
:100B700084F83E0000262664C4F824806785608DD2
:100B800020852D48E0622B464A465146204600F01B
:100B90000BFC90B9206841698069009036E02A46D4
:100BA0004946204600F058FD50B1206C042804D17D
:100BB0002068016841F4007101600120BDE8F88FF0
:100BC000606A216800780861606A401C6062618D1B
:100BD000491E6185218D491E89B22185226853698C
:100BE000DB435B070BD451B100781061606A401C95
:100BF0006062608D401E6085208D401E20852A46E3
:100C00004946204600F01EFC0028CED1208D002849
:100C1000C5D154F83D0B016841F4007101602020FA
:100C200004F81E09E67766770020C7E7FFE7022091
:100C3000C4E70000020010000000FFFF10B586B0FE
:100C40000021009101910291039100680F498842AF
:100C50001AD10F4CA06940F00800A061A069694654
:100C600000F008000490C0200090122001900320A2
:100C700003900848FFF758FCE06940F40010E06179
:100C8000E06900F40010049006B010BD005400406C
:100C900000100240000C01400248816802781144B3
:100CA0008160704728000020074810B5016841F0B6
:100CB00010010160032000F067F80F2000F006F833
:100CC00000F024F8002010BD0020024070B50D4D4A
:100CD00004464FF47A712878B1FBF0F00A490968AC
:100CE000B1FBF0F000F0BEFA48B9102C07D2002298
:100CF0002146501E00F028F800206C6070BD0120D5
:100D000070BD000028000020340000200C4808B509
:100D1000816941F001018161816901F00101009166
:100D2000C16941F08051C161C06900F080500090FC
:100D30000448416821F0E06141F00071416008BD64
:100D40000010024000000140F0B40E4B1B680C463E
:100D5000C3F30223C3F10705042D00D90425191D8F
:100D6000072901D2002300E0DB1E012606FA05F167
:100D7000491E214099409E40761E16403143F0BCEA
:100D800000F025BE0CED00E0064900F007020868FF
:100D90004FF6FF03184040EA0220034A1043086060
:100DA000704700000CED00E00000FA052DE9F04767
:100DB0000F46050061D0434E306800F00700B8428E
:100DC00009D2306820F0070038433060306800F006
:100DD0000700B84251D128683B4C810712D5400723
:100DE00003D5606840F4E06060602878000703D5B0
:100DF000606840F4605060606068A96820F0F000AE
:100E0000084360602878C00728D06868012810D09F
:100E10002168022810D0890700292EDA616821F0A4
:100E2000030101436160FFF781FC804641F288398C
:100E30000DE021688903EFE78901EDE7FFF776FC14
:100E4000A0EB0801494502D90320BDE8F08760689E
:100E5000696800F00C00B0EB810FEFD1306800F052
:100E60000700B8420BD9306820F0070038433060E3
:100E7000306800F00700B84201D00120E5E728788B
:100E8000400705D56068E96820F4E06008436060C9
:100E90002878000706D56068296920F4605040EA88
:100EA000C100606000F028F86168084AC1F30311CE
:100EB000515CC8400649086006480068FFF706FF15
:100EC0000020C2E700200240001002408C220008EF
:100ED000340000202C0000200448054900684968BF
:100EE000044AC1F30221515CC8407047340000201D
:100EF000001002409C2200080E4A51680E4801F082
:100F00000C03042B11D0082B0FD10C48C1F38343E1
:100F1000C903C05C0AD55168084AC1F34041921E1A
:100F2000515C054A5043B0FBF1F070470449484317
:100F3000704700000010024000127A007C22000876
:100F400000093D002DE9F84F040070D02078C04D15
:100F5000C00749D06868C0F38100012807D06868DD
:100F6000C0F38100022809D16868C00306D528684B
:100F7000800339D560680028E7D035E06068B0F5B7
:100F8000803F0BD010B1B0F5A02F11D0286820F40D
:100F900080302860286820F4802002E0286840F42F
:100FA00080302860606890B1FFF7C0FB06460AE019
:100FB000286840F480202860F0E700BFFFF7B6FB08
:100FC000801B642873D828688003F7D50CE0FFF7EE
:100FD000ADFB064605E000BFFFF7A8FB801B6428B9
:100FE000F0D828688003F7D420789A4E80074FF015
:100FF00001094FF0000839D5686810F00C0F07D0D0
:101000006868C0F38100022809D16868C00306D46B
:101010002868800714D52069012808D110E02069CC
:10102000B0B1C6F80090FFF781FB074605E00AE182
:10103000FFF77CFBC01B0228C4D828688007F7D5BF
:101040002868616920F0F80040EAC10028600DE0DE
:10105000C6F80080FFF76AFB074604E0FFF766FB6F
:10106000C01B022823D828688007F7D420780007FF
:101070002CD57948A169D9B1C0F80090FFF756FB8B
:10108000074604E0FFF752FBC01B02280FD8686A2E
:101090008007F7D571484FF4FA510068B0FBF1F0C2
:1010A000009000BF0098411E0091FAD20EE080E04F
:1010B000C0F80080FFF73AFB074604E0FFF736FB75
:1010C000C01B022875D8686A8007F7D420784007CB
:1010D00060D5E8690027C00008D4E86940F0805076
:1010E000E861E869012700F0805000905C480168E1
:1010F000C90513D40168834641F480710160FFF78C
:1011000015FB824606E000BFFFF710FBA0EB0A00CC
:1011100064284ED8DBF80000C005F5D5E06801284A
:101120000AD008B1052813D0286A20F001002862EF
:10113000286A20F0040002E0286A40F001002862DA
:10114000E06841F2883B98B1FFF7F0FA82460BE085
:10115000286A40F004002862EEE700BFFFF7E6FAD5
:10116000A0EB0A0159455AD8286A8007F6D50CE049
:10117000FFF7DCFA824605E0FFF7D8FAA0EB0A0198
:1011800059454CD8286A8007F6D41FB1E86920F089
:101190008050E861E06988B36968C1F38101022980
:1011A00044D00228C6F8608004D0FFF7BFFA044696
:1011B00038E034E0FFF7BAFA074604E0FFF7B6FA82
:1011C000C01B02282BD828688001F7D4206AB0F50C
:1011D000803F05D16868A16820F40030084368604A
:1011E000D4E908010843696821F474110843686070
:1011F000C6F86090FFF79AFA044606E025E000BFC3
:10120000FFF794FA001B022809D828688001F7D557
:101210001BE000BFFFF78AFA001B022802D9032057
:10122000BDE8F88F28688001F4D40EE00128F7D0DB
:101230006868226A00F48031914204D1616A00F446
:101240007010884201D00120EAE70020E8E70000A2
:10125000001002400000424280044242340000205C
:101260000070004010B5401EB0F1807F01D3012016
:1012700010BD4FF0E02460610F21601700F0A7FB64
:101280000020A06107202061002010BDFEE701685A
:101290004A69D24352050FD46FF480624A6100213B
:1012A00040F8301F202242738173026942F0040229
:1012B0000261017301207047002070472DE9F84F4B
:1012C0000446C06A1E4693460D4621680A6842F4E9
:1012D00080620A60082807D0012805D010F5803FF9
:1012E00002D0206B112804D12068016841F480717C
:1012F00001604FF001195B460022494620460096E6
:1013000000F0CCF84FF4007840B120680068C005C8
:1013100001D5C4F840800320BDE8F88F2069DFF8CC
:1013200084A0B0F5804F0FD00620216800EAD517C1
:1013300047F0F000086133465A460AF1060120469C
:1013400000F0F4F858BB03E0E8B240F001001CE004
:101350002168E8B2086133465A465146204600F0FB
:10136000E5F8E0B92068416981690091016841F4BC
:10137000807101605B46002249462046009600F0DD
:101380008DF80028C1D147F0F1002168086133468B
:101390005A465146204600F0C9F80028BCD001202A
:1013A000BAE7000002000100F8B50446C06A1E4614
:1013B0000D461746082807D0012805D010F5803FB4
:1013C00002D0206B122804D12068016841F480719A
:1013D0000160134600224FF001112046009600F0F4
:1013E0005DF840B120680068C00502D54FF4007078
:1013F00020640320F8BD2069B0F5804F0ED0062090
:10140000216800EAD51040F0F000086133463A4602
:101410000B49204600F08AF878B902E005F0FE009A
:1014200000E0E8B221680861054933463A46891F61
:10143000204600F07BF80028DCD00120F8BD000039
:101440000800010070B516460D4604461EE0204611
:10145000FFF71DFF08B1012070BD681C16D0FFF713
:1014600065F9801BA84200D885B920684069C0434F
:1014700040070BD5002044F8300F20216173A07382
:10148000216941F0200121612073E4E7206840696F
:10149000C0434007DBD4002070BD00002DE9F047B9
:1014A000984617460D460446C1F30746DDF82090DE
:1014B0002AE000BFB8F1FF3F26D0FFF737F9A0EBD5
:1014C0000901414502D8B8F1000F1DD12068012E55
:1014D00016D0806925EA00000004000C12D000201C
:1014E000B84211D1002044F8300F20216173A0735D
:1014F000216941F02001216120730120BDE8F087BE
:101500004069E7E70120EBE72068012E0AD08069F7
:1015100025EA00000004000C06D00020B842C9D023
:101520000020EBE74069F3E70120F7E72DE9F047FA
:10153000984616460D4604464FF000094FF0200A23
:10154000C1F3074723E020684069C043400515D434
:101550002068016841F40071016021686FF48060C7
:101560004861C4F8309084F83DA084F83E90216C26
:1015700041F00401216484F83C9021E0701C06D005
:10158000FFF7D4F8A0EB0800B04203D816B1012F42
:101590001FD021E02068012F15D0806925EA0000C6
:1015A0000004000C18D000BF44F8309F84F80DA050
:1015B00084F80E90216941F02001216184F80C909B
:1015C0000120BDE8F087406925EA00000004000C16
:1015D000EAD12068406901E02068806925EA0000BE
:1015E0000004000CAFD1ECE72DE9F0410025904656
:1015F0000E460446202728E04069C043C0060CD4AC
:1016000054F8301B6FF01000486144F810596777A8
:10161000A577206A2062257714E0FFF787F8A0EB12
:101620000800B04200D886B920684069C04340062F
:101630000BD544F8305F6773A573206940F0200034
:10164000206125730120BDE8F08120684169C9430C
:101650004906D1D40020F6E770B516460D4604467B
:101660001EE02046FFF713FE08B1012070BD681C84
:1016700016D0FFF75BF8801BA84200D885B9206818
:101680004069C04300060BD5002044F8300F2021EC
:101690006173A073216941F0200121612073E4E7A7
:1016A00020684069C0430006DBD4002070BD000004
:1016B0002DE9F04F85B00024314800940194029444
:1016C0000394816941F010018161816901F0100189
:1016D0000491816941F020018161816901F020015B
:1016E0000491816941F004018161816901F0040183
:1016F0000491816941F0080181618069012200F053
:101700000800DFF880905503049029464846FFF70B
:1017100008F8DFF874A06F1E002239465046FFF724
:1017200000F8DFF868B04FF44058002241465846B0
:10173000FEF7F7FF0095022601250396CDE9015437
:1017400069464846FEF7F0FE00970396CDE901543E
:1017500069465046FEF7E8FE0B20CDE900046946D5
:1017600058460294FEF7E0FECDF800800396CDE9DE
:10177000015469465846FEF7D7FE05B0BDE8F08F24
:10178000001002400010014000080140000C014020
:10179000FEE7FEE7704770472DE9F047894692461D
:1017A0000A21B0FBF1F2D7B2B0FBF1F201FB120655
:1017B000FEF7BCFF514C6168401AB0F57A7F06D342
:1017C0002078D0B100202070FEF7B0FF6060DFF815
:1017D0002C814B4D08F11B08B9F1000F0FD0B9F166
:1017E000010F41D0B9F1020F7DD150464FF400698D
:1017F0004FF4805A03287AD050E00120E3E74FF4F9
:101800008079BAF1010F01D12078E0B118F8070012
:1018100000F078F8002280212846FEF782FF05209C
:10182000FEF770FE012280212846FEF77AFF18F8A5
:10183000060000F067F800224C4649462846FEF7AD
:1018400070FF052047E0FF2000F05CF800228021B7
:101850002846FEF766FF0520FEF754FE0122802190
:101860002846FEF75EFFE6E750464FF400794FF456
:10187000806A02283BD011E0FF2000F043F80022EC
:101880004C4649462846FEF74CFF0120FEF73AFE3B
:10189000012221462846FEF744FF15E018F807000C
:1018A00000F030F800224C4649462846FEF739FF42
:1018B0000120FEF727FE012221462846FEF731FFD0
:1018C00018F8060000F01EF800225446514628463B
:1018D000FEF727FF0120FEF715FE21462846BDE84A
:1018E000F047012201E006E001E0FEF71ABF207890
:1018F0000028D3D1C0E7BDE8F08700000000002039
:101900000008014070B5174D044600F001020121A6
:101910002846FEF706FFC4F3400202212846FEF7E0
:1019200000FFC4F3800204212846FEF7FAFEC4F348
:10193000C00208212846FEF7F4FEC4F3001210216D
:101940002846FEF7EEFEC4F3401220212846FEF79B
:10195000E8FEC4F380122846BDE870404021FEF73F
:10196000E0BE000000080140FFF796B930B58FB027
:1019700028216846FEF728FC14210AA8FEF724FC5B
:1019800001210804CDE900100024029402250491ED
:10199000CDE907504FF4E01009906846FFF7D2FAFE
:1019A00008B172B6FEE70F20CDE90A054FF480605A
:1019B000CDE90C4002210AA80E94FFF7F7F90028A0
:1019C00001D072B6FEE70FB030BD7047FEE70907E1
:1019D000090E002804DB00F1E02080F800147047B5
:1019E00000F00F0000F1E02080F8141D70477047F0
:1019F0000449884205D1044841F288310069FEF764
:101A0000A7BC7047BC000020000000202DE9F04179
:101A10003A490025DFF8E8803A4C4FF400568842F6
:101A20001BD1002231464046FEF77BFEA178022002
:101A3000012251B101290BD0032002290AD0032928
:101A400001D16070A570BDE8F0816070A270FAE706
:101A5000627000E06570A070F5E72A49DFF89CC06D
:101A600001F114024F780CF1180C91785478137826
:101A700060451ED127B1012F09D0022F23D10DE0DF
:101A8000491CC8B290703C280ED195700CE0641CC3
:101A9000E0B250703C2807D1557005E05B1CD8B20D
:101AA0001070182800D115701648143000F04CF949
:101AB00009E0124D3035A842C5D13C2057B1012F65
:101AC0000FD0022F13D031464046BDE8F04101222D
:101AD000FEF727BE491E11F0FF019170E4D190700E
:101AE000E2E704B950705078401E5070DCE70BB943
:101AF000182010701078401E1070D5E78C00002060
:101B00000010014000000020704770B50446818A33
:101B10000069FEF7F9FDA1780126814204D0A0708A
:101B2000E670FEF703FE6060E078002540B1FEF746
:101B3000FDFD6168401A0F2802D3A0782070E5707F
:101B400020786178884210D0F0B1FEF7EFFDA168EF
:101B5000401AB0F57A7F02D82046FFF748FF2046AA
:101B6000FFF7D2FF257320786070207B00280AD011
:101B7000FEF7DCFDA168401AB0F5FA6F03D32046EA
:101B8000FFF736FF257370BD26732046FFF73EFF33
:101B9000FEF7CCFDA060E6E7FFF786F8FFF7E6FE6C
:101BA000FFF786FD324831494FF4804201603149E8
:101BB000416000218160C0E9031241618161C1611E
:101BC0000162FEF7B9FD08B172B6FEE72A4D28485A
:101BD000012229465430FEF764FB2548022229469B
:101BE0006C30FEF75EFB2248082229468430FEF75F
:101BF00058FB224800F06EF84FF47A761F4C7710AD
:101C0000143C4FF480584FF4005900BFFEF78EFD8E
:101C1000E168401AB04209D3184800F05BF8174851
:101C200000F02EF82061FEF781FDE060104854308E
:101C3000FFF76BFF0E486C30FFF767FF0C488430EE
:101C4000FFF763FFFEF73CFBFEF770FDA168401A4B
:101C5000B842DBD341462846FEF75BFD494628469D
:101C6000FEF757FDFEF762FDA060CFE7005400408D
:101C700038000020A0860100000C01401400002064
:101C80003EB511208DF808006424012302AAD0215A
:101C90000F480094FEF73CFF022301AAD0210C4814
:101CA0000094FEF70DFE9DF805009DF90450800993
:101CB00000F01EF96FF0010100F0A1FA0446284679
:101CC00000F0FEF803B02146BDE8304000F070B8E7
:101CD000380000207FB5044600208DF80C006425F4
:101CE000012303AAD02117480095FEF711FF07230F
:101CF00001AAD02113480095FEF7E2FD9DF80400EB
:101D0000FEF7C5FAA0709DF80500FEF7C0FA6070F6
:101D10009DF80600FEF7BBFA20709DF80700FEF75D
:101D2000B6FAE0709DF80800FEF7B1FA20719DF850
:101D30000900FEF7ACFA60719DF80A00FEF7A7FAF9
:101D4000A0717FBD380000200EB5034600208DF83D
:101D500004009878FEF7A9FA8DF805005878FEF788
:101D6000A4FA8DF806001878FEF79FFA8DF80700A0
:101D7000D878FEF79AFA8DF808001879FEF795FAE8
:101D80008DF809005879FEF790FA8DF80A009879D5
:101D9000FEF78BFA8DF80B0064200090082301AA4F
:101DA000D0210248FEF7B4FE0EBD0000380000202E
:101DB00090EA010F48BF81F0004100F18081421A92
:101DC0003CBF801A89184FEAD0524FF07F4C1CEA72
:101DD000410FA2EBD15318BF9CEA026F00F03B8089
:101DE0004FF0004C4CEA00204CEA012121FA03FCA0
:101DF00010EB0C0C1ED202F1FF325FEA1C2040EB0C
:101E0000C25038BF70471CF07F0F4FEA400C18BF1C
:101E1000BCF17F4F38BF7047C3F12003994008BF22
:101E200020F00100BCF17F4F38BF7047A0F1C040E7
:101E300000F039B94FEA3C00000A40EBC25028BF1D
:101E40001CF0FF0F4FEA400CE6D018BFBCF17F4FEB
:101E500038BF7047EAE79CEA026F05D010EA5C0FD2
:101E600008BF00F00040704710B500F0D6F800BF82
:101E700064FBBE3E014800F090B900BF0000C07F87
:101E8000C10DD1F19E0206DB4FEA002343F000436F
:101E900023FA02F07047004207D54FEA4001B1F142
:101EA000FE4F02D24FF00000704710B500F0B5F8B9
:101EB00049922480002070476FEA2000704700009C
:101EC00010F0004148BF4042B0FA80F310FA03F22C
:101ED000C3F19D030BD051EAC35101EB122053060D
:101EE00038BF704700F1010008BF20F001007047C3
:101EF000B0FA80F310FA03F2C3F19D030AD0D905BA
:101F000001EB1220530638BF704700F1010008BFF3
:101F100020F00100704700004FF47F0C1CEAD01243
:101F20001EBF1CEAD11392EA0C0F93EA0C0F00F0CB
:101F3000478090EA010F48BF42F480724FF0004C96
:101F40004CEA00204CEA012102EB0302A0FB011342
:101F5000A2F50002002918BF43F001035B0028BF6F
:101F60004FEA330342EB22425FEA132C4CEBC250A0
:101F70002EBFBCEB436FB2F57C0F70474FEA036C8A
:101F8000BCF1004F08BF20F00100B2F57C0F38BF54
:101F900070470BD582F0FF0212F5803FC8BF704733
:101FA00000F1C040D8BF00F00040704700F5000CC1
:101FB0005FEA4C0C48BF7047B0F1C04000F073B806
:101FC00090EA010F0CEAD11348BF42F480726245D7
:101FD00038BF634504D280EA010000F0004070473A
:101FE00010B500F01AF800BF8900013E00F007B8F4
:101FF00000F009B85FEA410C5FEA1C6C08D080EA87
:10200000010000F050B85FEA400C5FEA1C6CF6D1AA
:102010004FF00040A0F5800070470EF1020E2EF048
:10202000030E5EF8044B244204D44FEA4102B2F19D
:102030007F4F11D84FEA4003B3F17F4F0CD80ED138
:102040004FEAD07CB2F17F4F0CEB4C0C0CF1020C40
:1020500008BF4CEBD17C04E04FF0080C01E04FEAE4
:10206000D17C0CEB4C0324FA03F404F00704B4F124
:10207000040C06D20EEB840CBDE810404CF0010CB1
:102080006047DFE80CF0070802024FF00040A0F5BF
:10209000800010BD0846420018BFD2F1807288BF90
:1020A00000F0004010BDFF2141EAD050C00570474C
:1020B00090EA010F48BF81F000413FF580AE421A1F
:1020C00004D882F00042A0EB020011444FEAD05243
:1020D0004FF07F4C1CEA410FA2EBD15318BF9CEA92
:1020E000026F4AD04FF0004C4CEA00204CEA01212C
:1020F00021FA03FCB0EB0C0C0FD412F0FE0F36D01B
:102100005FEA4C001DD5001240EBC25038BF70474B
:102110001CF03F0F18BF70470BE0A2F101025FEA0D
:102120001C2040EBC25038BF70471CF07F0F18BF17
:102130007047C3F12003994014BF401E20F00100F6
:10214000704780084FEA122308BF7047B0FA80FC3E
:10215000A2EB0C02CCF1280C60FA0CF093EA122FDF
:1021600004BF00EBC25070474FEAC3707047130AB8
:102170005FEADC1008BF7047F6E79CEA026F04D004
:1021800010EA5C0F08BF0020704710B5FFF745FF4D
:1021900040DFF63E81F0004070470CF00F03092B42
:1021A00008BF082000F051800A2B0BD0082B18BF65
:1021B000704708BF1CF0400F0AD04FF000004FF0EE
:1021C000000170471CF0400F18BF4FF000407047EF
:1021D0001CF0100F08D020F0704300F07F4242EA5C
:1021E000D3014FEA4370704700F0604021F07F4216
:1021F00042EA000201F07F4040EA727070474FF0FF
:10220000FF0212EAD0521CBF92F0FF038B42C2BF02
:10221000D14200EBC1507047002A0AD0002B0BD0EE
:10222000002900F00040A4BF40F0FE4040F4000050
:10223000704700F00040704743024FF00B0C18BF8E
:102240004CF0806C7FF416AE70471CF4801F11D0E8
:102250001CF4E02F03D06FEACC31490070474FF0F7
:102260004050EFF3008222F0704242EA000282F313
:10227000008870474FF00000704701020203040518
:10228000060708090A0B0C0D0E0F101000000000C5
:102290000000000001020304060708090000000016
:1022A00001020304C42200080000002038000000DE
:1022B00028010008FC220008380000200007000068
:1022C00044010008010300000000000000000000BD
:1022D000000000000000000000000000000000C03E
:1022E000F9A4B0999282F8809000000001000000EB
:0C22F000100000000000000000127A0046
:04000005080000ED02
:00000001FF
